{
  "_format": "hh-sol-artifact-1",
  "contractName": "Soutter",
  "sourceName": "contracts/Soutter.sol",
  "abi": [
    {
      "anonymous": false,
      "inputs": [
        {
          "indexed": false,
          "internalType": "uint256",
          "name": "id",
          "type": "uint256"
        }
      ],
      "name": "Completed",
      "type": "event"
    },
    {
      "anonymous": false,
      "inputs": [
        {
          "indexed": false,
          "internalType": "uint256",
          "name": "id",
          "type": "uint256"
        },
        {
          "indexed": false,
          "internalType": "string",
          "name": "content",
          "type": "string"
        }
      ],
      "name": "Created",
      "type": "event"
    },
    {
      "inputs": [
        {
          "internalType": "string",
          "name": "_name",
          "type": "string"
        },
        {
          "internalType": "string",
          "name": "_content",
          "type": "string"
        }
      ],
      "name": "createTweet",
      "outputs": [],
      "stateMutability": "nonpayable",
      "type": "function"
    },
    {
      "inputs": [
        {
          "internalType": "uint256",
          "name": "_id",
          "type": "uint256"
        }
      ],
      "name": "toggleCompleted",
      "outputs": [],
      "stateMutability": "nonpayable",
      "type": "function"
    },
    {
      "inputs": [],
      "name": "tweetCount",
      "outputs": [
        {
          "internalType": "uint256",
          "name": "",
          "type": "uint256"
        }
      ],
      "stateMutability": "view",
      "type": "function"
    },
    {
      "inputs": [
        {
          "internalType": "uint256",
          "name": "",
          "type": "uint256"
        }
      ],
      "name": "tweets",
      "outputs": [
        {
          "internalType": "string",
          "name": "name_of_tweet",
          "type": "string"
        },
        {
          "internalType": "string",
          "name": "content",
          "type": "string"
        },
        {
          "internalType": "bool",
          "name": "isCompleted",
          "type": "bool"
        }
      ],
      "stateMutability": "view",
      "type": "function"
    }
  ],
  "bytecode": "0x60806040526000805534801561001457600080fd5b50610cd4806100246000396000f3fe608060405234801561001057600080fd5b506004361061004c5760003560e01c8063455f5024146100515780634a7782b31461006d5780638cd14d301461008b578063e8d857b0146100a7575b600080fd5b61006b60048036038101906100669190610922565b6100d9565b005b610075610403565b6040516100829190610a4e565b60405180910390f35b6100a560048036038101906100a091906108b6565b610409565b005b6100c160048036038101906100bc9190610922565b6104ee565b6040516100d093929190610a09565b60405180910390f35b60006001600083815260200190815260200160002060405180606001604052908160008201805461010990610b6e565b80601f016020809104026020016040519081016040528092919081815260200182805461013590610b6e565b80156101825780601f1061015757610100808354040283529160200191610182565b820191906000526020600020905b81548152906001019060200180831161016557829003601f168201915b5050505050815260200160018201805461019b90610b6e565b80601f01602080910402602001604051908101604052809291908181526020018280546101c790610b6e565b80156102145780601f106101e957610100808354040283529160200191610214565b820191906000526020600020905b8154815290600101906020018083116101f757829003601f168201915b505050505081526020016002820160009054906101000a900460ff161515151581525050905061027d6040518060400160405280600b81526020017f7477656574206e616d653a0000000000000000000000000000000000000000008152508260000151610635565b6102c06040518060400160405280600e81526020017f747765657420636f6e74656e743a0000000000000000000000000000000000008152508260200151610635565b6103036040518060400160405280600e81526020017f6265666f7265206368616e67653a00000000000000000000000000000000000081525082604001516106d1565b60018160400190151590811515815250506103576040518060400160405280600d81526020017f6166746572206368616e67653a0000000000000000000000000000000000000081525082604001516106d1565b80600160008481526020019081526020016000206000820151816000019080519060200190610387929190610796565b5060208201518160010190805190602001906103a4929190610796565b5060408201518160020160006101000a81548160ff0219169083151502179055509050507fdfd517ed69f8a0a57d49fe494e4864fac3cfe3585c14c0bfddf39f72463ec3fd826040516103f79190610a4e565b60405180910390a15050565b60005481565b60008081548092919061041b90610ba0565b91905055506040518060600160405280838152602001828152602001600015158152506001600080548152602001908152602001600020600082015181600001908051906020019061046e929190610796565b50602082015181600101908051906020019061048b929190610796565b5060408201518160020160006101000a81548160ff0219169083151502179055509050507f8304eea71399999aba5c87c24c7fbc7cb6fce2f02b9b5983fda2636b86df8d0a600054826040516104e2929190610a69565b60405180910390a15050565b600160205280600052604060002060009150905080600001805461051190610b6e565b80601f016020809104026020016040519081016040528092919081815260200182805461053d90610b6e565b801561058a5780601f1061055f5761010080835404028352916020019161058a565b820191906000526020600020905b81548152906001019060200180831161056d57829003601f168201915b50505050509080600101805461059f90610b6e565b80601f01602080910402602001604051908101604052809291908181526020018280546105cb90610b6e565b80156106185780601f106105ed57610100808354040283529160200191610618565b820191906000526020600020905b8154815290600101906020018083116105fb57829003601f168201915b5050505050908060020160009054906101000a900460ff16905083565b6106cd828260405160240161064b9291906109d2565b6040516020818303038152906040527f4b5c4277000000000000000000000000000000000000000000000000000000007bffffffffffffffffffffffffffffffffffffffffffffffffffffffff19166020820180517bffffffffffffffffffffffffffffffffffffffffffffffffffffffff838183161783525050505061076d565b5050565b61076982826040516024016106e79291906109a2565b6040516020818303038152906040527fc3b55635000000000000000000000000000000000000000000000000000000007bffffffffffffffffffffffffffffffffffffffffffffffffffffffff19166020820180517bffffffffffffffffffffffffffffffffffffffffffffffffffffffff838183161783525050505061076d565b5050565b60008151905060006a636f6e736f6c652e6c6f679050602083016000808483855afa5050505050565b8280546107a290610b6e565b90600052602060002090601f0160209004810192826107c4576000855561080b565b82601f106107dd57805160ff191683800117855561080b565b8280016001018555821561080b579182015b8281111561080a5782518255916020019190600101906107ef565b5b509050610818919061081c565b5090565b5b8082111561083557600081600090555060010161081d565b5090565b600061084c61084784610aca565b610a99565b90508281526020810184848401111561086457600080fd5b61086f848285610b2c565b509392505050565b600082601f83011261088857600080fd5b8135610898848260208601610839565b91505092915050565b6000813590506108b081610c87565b92915050565b600080604083850312156108c957600080fd5b600083013567ffffffffffffffff8111156108e357600080fd5b6108ef85828601610877565b925050602083013567ffffffffffffffff81111561090c57600080fd5b61091885828601610877565b9150509250929050565b60006020828403121561093457600080fd5b6000610942848285016108a1565b91505092915050565b61095481610b16565b82525050565b600061096582610afa565b61096f8185610b05565b935061097f818560208601610b3b565b61098881610c76565b840191505092915050565b61099c81610b22565b82525050565b600060408201905081810360008301526109bc818561095a565b90506109cb602083018461094b565b9392505050565b600060408201905081810360008301526109ec818561095a565b90508181036020830152610a00818461095a565b90509392505050565b60006060820190508181036000830152610a23818661095a565b90508181036020830152610a37818561095a565b9050610a46604083018461094b565b949350505050565b6000602082019050610a636000830184610993565b92915050565b6000604082019050610a7e6000830185610993565b8181036020830152610a90818461095a565b90509392505050565b6000604051905081810181811067ffffffffffffffff82111715610ac057610abf610c47565b5b8060405250919050565b600067ffffffffffffffff821115610ae557610ae4610c47565b5b601f19601f8301169050602081019050919050565b600081519050919050565b600082825260208201905092915050565b60008115159050919050565b6000819050919050565b82818337600083830152505050565b60005b83811015610b59578082015181840152602081019050610b3e565b83811115610b68576000848401525b50505050565b60006002820490506001821680610b8657607f821691505b60208210811415610b9a57610b99610c18565b5b50919050565b6000610bab82610b22565b91507fffffffffffffffffffffffffffffffffffffffffffffffffffffffffffffffff821415610bde57610bdd610be9565b5b600182019050919050565b7f4e487b7100000000000000000000000000000000000000000000000000000000600052601160045260246000fd5b7f4e487b7100000000000000000000000000000000000000000000000000000000600052602260045260246000fd5b7f4e487b7100000000000000000000000000000000000000000000000000000000600052604160045260246000fd5b6000601f19601f8301169050919050565b610c9081610b22565b8114610c9b57600080fd5b5056fea26469706673582212204cb30135d6ea90be6e80458725a5486caa24eba3652bae0e3bf3d207b149825364736f6c63430008000033",
  "linkReferences": {},
  "deployedLinkReferences": {}
}